:020000021000EC
:10B0000000800020B1190200F1190200F3190200BA
:10B010000000000000000000000000000000000030
:10B02000000000000000000000000000F519020010
:10B030000000000000000000F7190200F9190200EA
:10B04000FB190200FB1902001DC70100FB190200D9
:10B05000FB1902000000000009C20100FB190200F8
:10B06000FB190200FB190200FB190200FB19020088
:10B07000FB190200FB190200FB190200FB19020078
:10B08000FB1902009DB60100FB190200FB1902002A
:10B0900079B70100FB190200C1120200FB1902007E
:10B0A000FB190200FB190200000000000000000074
:10B0B0000000000000000000000000000000000090
:10B0C00010B5064C2378002B07D1054B002B02D07E
:10B0D000044800E000BF0123237010BDF8200020C9
:10B0E00000000000CC1E0200084B10B5002B03D05E
:10B0F0000749084800E000BF07480368002B03D059
:10B10000064B002B00D0984710BDC0460000000041
:10B11000FC200020CC1E0200F420002000000000D3
:10B12000144B002B00D1124B9D46402292029A1ADA
:10B13000924600218B460F461148124A121A00F01F
:10B140007BF80D4B002B00D098470C4B002B00D008
:10B1500098470020002104000D000B4800F016F86D
:10B1600000F046F82000290003F030FD00F016F84A
:10B170000000080000800020000000000000000027
:10B18000F8200020042A0020C9B10100002310B5D6
:10B1900001001A00180000F057F810BD084B10B558
:10B1A0000400002B02D0002100F0B8F8054B18680D
:10B1B000836A002B00D09847200000F021F9C04698
:10B1C0001DB30100B41B020070B5074D074C641B92
:10B1D000A410002C02D106F0E7FC70BD013CA300D6
:10B1E000EB589847F5E7C046F0200020F4200020F7
:10B1F00070B500260C4D0D4C641BA410A64209D15D
:10B20000002606F0CBFC0A4D0A4C641BA410A64293
:10B2100005D170BDB300EB5898470136EEE7B30097
:10B22000EB5898470136F2E7EC200020EC20002094
:10B23000EC200020F020002003008218934200D16F
:10B24000704719700133F9E7F0B5304D85B02C68BF
:10B250000600019117000293002C0AD12C4B2D4AB5
:10B260002B601C00002A04D0190012688831039258
:10B270000A6063681F2B3DDD274B002B03D10120A3
:10B28000404205B0F0BD8C2000E000BF041EF6D0A7
:10B290002A6800230260020088324360286013603D
:10B2A0009E421ED08420400000E000BF0028E6D06F
:10B2B00003000022FC335A609A6023008833186030
:10B2C000012261688A408B00C31880C3FC3041684A
:10B2D000114341600299D967022E02D183681A4353
:10B2E0008260636800205A1C62600233019A9B00EE
:10B2F0001A51C6E7002EF4D02300883318680028BE
:10B30000DED1054B002BBAD0CCE7C046A0210020EF
:10B31000142100200000000000000000F0B587B0FC
:10B3200005900391344E3468002C01D107B0F0BD74
:10B330002300656888331F686B1EAD000193631995
:10B34000043D02937D19019B002B12DA2B4B002B3D
:10B35000ECD062682368002A4BD1002B49D03360BF
:10B36000002F02D0380000E000BF200000E000BF46
:10B37000D9E7039B002B0FD0002F07D1019B043D81
:10B38000013B0193029B043B0293DCE72B008033DB
:10B390001B68039A9A42F1D16268029B0199013AB3
:10B3A0005B68914217D16160002BE7D0626804921C
:10B3B000002F07D0012201998A403900FC314868EA
:10B3C00010420CD19847049B62689342AAD133681B
:10B3D0009C42D3D0A6E7002202994A60E4E789683C
:10B3E000114203D1296805989847ECE728689847E7
:10B3F000E9E726001C0097E7A021002000000000DC
:10B40000FEE7C046F8B54D465F4656464446F0B4A2
:10B41000224B1978994600292AD0214B00249846BE
:10B42000204B214F01269A4603E00134E4B28C42BE
:10B430001ED243461B6832009C46E50065442878CE
:10B440003B6882401342F0D093433B6000F0D2FE51
:10B4500033002A785146934009680B40010091401F
:10B460008B420BD04B4601341978E4B28C42E0D3C6
:10B470003CBC90469946A246AB46F8BD6B689B46DD
:10B48000002BEFD0697801394B424B41191A4D42DC
:10B490004D411000E9B2D847E4E7C046A42100209E
:10B4A000D4210020CC210020D0210020F8B5124D5D
:10B4B0000700280000F098FC002807D10124BC40B8
:10B4C0000E4E3368234202D0A3433360F8BD3800E8
:10B4D00000F090FE0A4A136800280BD02343136043
:10B4E000336800221C43074B28001968346000F0C1
:10B4F00005FCEBE7A343F2E7AC210020D0210020BC
:10B50000CC210020A8210020F0B54F464646C0B40B
:10B510000D00070083B014000720042A04D803B0EC
:10B520000CBC90469946F0BD00F05CFD00282DD083
:10B53000194B1A4A1F601A4B1D701A4B1C600023CE
:10B540001360194A6C1E1360E4B2002D18D0174B1B
:10B55000002699460323984601AD4246E300FB18B6
:10B560002A70AE70EE709A7818786A7029004A4690
:10B5700000F042FD0028D2D1013CE4B2FF2CECD116
:10B580000B4A00210B4800F09FFBC8E700F0F6FCD7
:10B590000028CDD0C3E7C046D4210020CC21002014
:10B5A000A4210020A8210020D0210020ADB401005A
:10B5B00005B40100BC1B020070B5094D2B78002BAF
:10B5C0000BD00024074E3268E300985C012100F0A4
:10B5D000BDFD2B780134A342F5D8002070BDC046D4
:10B5E000A4210020D4210020002300B585B001AAA9
:10B5F0009060002103481380536000F005F805B007
:10B6000000BDC04601400000BFF34F8F034A044B0A
:10B61000DA60BFF34F8FC046FDE7C0460400FA056D
:10B6200000ED00E080218023184A8902D150802259
:10B63000D221174B520289005A5040395A500122E8
:10B640002F205A600138C046C046C046C046C0469A
:10B65000C046C046C046C046C046C046C046F1D1FE
:10B660009A6000230B4A2F2013600138C046C04661
:10B67000C046C046C046C046C046C046C046C0469A
:10B68000C046C046F1D1044A1370704700E100E0A3
:10B6900000100140EC210020DD210020A021F0B5A8
:10B6A000002347462B4A490080B45350043153507D
:10B6B00004315350043153504C39535004315350DA
:10B6C000254B1B68002B35D0244900265458244AAA
:10B6D000244F1268A41A00222402240A904602E091
:10B6E000002D18D02B001A68A24214D8A41AB6183C
:10B6F0001A7CDD69002AF3D0424699691A745A69A6
:10B700003B68002B19D0100098470028E8D0FFF7BD
:10B710006BFF002DE6D11449144A0B7812789A4237
:10B720000ED0134A9B009E5080218023114A49036A
:10B730005B00D15004BC9046F0BD08009047CFE7B5
:10B740000132D3B2022B01D00B70EAE700230B7059
:10B75000E7E7C04600100140F42100200405000086
:10B76000EC210020D8210020E9210020E821002040
:10B77000E021002000E100E0F0B55F4656464D466E
:10B780004446F0B4C34B8BB00093C34A1B68C34913
:10B79000019309781378994200D128E10133DBB293
:10B7A000022B00D100231370BD4A9B009B58009AC6
:10B7B0009B46019B5B441B021B0A136001230393FE
:10B7C000B84B00241B681F000993B74BBC461B787D
:10B7D0001A000293B54B92461B680493009B1B68AA
:10B7E0000693B34B1B780593002399460893079360
:10B7F0005346013BDBB29A46FF2B5DD05346D8003F
:10B80000049B9846404402784578AA42F0D04168AB
:10B81000530088469B1881780132DB00D2B2434442
:10B8200091422BD0197802290DD00329EDD1002F98
:10B83000EBD03C74FF69002FFBD101239946002314
:10B8400045789C46E1E75E68002FDED03900BE42B5
:10B8500001D115E01900CB69002BD6D09E42F9D159
:10B860008E420ED0F3693568CB61002B14D0196875
:10B870006746884645441D604578C6E70022D1E703
:10B880003E00FF69002F09D001239946F36935680E
:10B89000BC46CB61002BEAD14578B6E70125854B44
:10B8A0009D6000239C46013399460893002306932C
:10B8B0004B4607930593D5E7079B002B00D09AE0F2
:10B8C000089B002B02D0009B069A1A604B46002B67
:10B8D00002D06246734B1A60039B002B00D0D0E06D
:10B8E000099B0025DB1B5A1E9341DBB20393002208
:10B8F0006F4B94461B783E000593009B00921B689B
:10B900006D4A984692460122664B06971B689146FF
:10B910009B46029B4746013BDBB20293FF2B00D1C3
:10B9200099E0049ADB0090469844002D25D06B687E
:10B93000A9682C00ED69DA1B1202120A52454ED892
:10B940005218226063466360A3604B4623746346CB
:10B95000E361002E6ED031683000914204D361E083
:10B96000196891424CD21800C369521A002BF7D1C2
:10B970002260E361C461002DD9D143464046597825
:10B980001B78019599425ED044685A00A046D218AF
:10B9900084780133D200DBB2424403709C424ED023
:10B9A0001478012CEED15468257CA846002DE9D1ED
:10B9B0004346019D0193936880466360D168A1600E
:10B9C0001069E0605269A261059A002AB3D0019B18
:10B9D00063600023DA1B1202120A5245B0D9FB1A27
:10B9E0001B021B0A8B4211D2CA1A2260AAE700234B
:10B9F0009B460393E4E66A462D4B127D1A705FE77F
:10BA0000891A19602260E361C461B4E76346236068
:10BA10006360A3604B4623746346E361002E09D044
:10BA20000022316801238A1A3260A346E66100933E
:10BA300026007AE70123A3462600009375E76346B4
:10BA400003700023ACE7029B019D013BDBB2029334
:10BA5000FF2B00D065E7009BB8465A46069F002B97
:10BA600000D0A9E0B74246D1039B002B43D100236D
:10BA70000F4A13700BB03CBC90469946A246AB46A9
:10BA8000F0BD084B00201B680025002100245E4605
:10BA900029E0C046EC210020E8210020E921002017
:10BAA000E0210020F4210020F0210020F8210020D6
:10BAB000DC21002000100140FEFF7F003A68B24206
:10BAC00000D97CE0F868B61A89183C60FB69002848
:10BAD00007D0FD613D00019AB86052181202120AA7
:10BAE0007A601F000398002FE8D1002800D1FEE6FD
:10BAF000374A1360FBE6002E00D15AE0354A36483B
:10BB0000364C815842468A1A12022578120A336846
:10BB10000332002D2CD0934200D21300A8244344BA
:10BB20002D481B021B0AE4002A4D035142595B1A9F
:10BB3000521A1202120A1B0203321B0A9A4296D9A7
:10BB4000435903512F200138C046C046C046C04665
:10BB5000C046C046C046C046C046C046C046C046B5
:10BB6000F1D1802180231E4A89025B00D1507EE7FB
:10BB70008025D1266D02B6008551403E8551C027F3
:10BB80008026174DB6027F00EE512E60012505601C
:10BB90002F200138C046C046C046C046C046C046F9
:10BBA000C046C046C046C046C046C046F1D125701A
:10BBB000B1E7FFF737FD5AE7054B1A6052E7B34686
:10BBC000002801D002490B605B46D21A3A608EE62B
:10BBD000F42100200405000000100140DD210020B8
:10BBE00000E100E0F8B54F464646C0B403263500F4
:10BBF00080460F001400994615400720002D03D001
:10BC00000CBC90469946F8BD002A44D0FFF70AFDC7
:10BC10004A46224B80211A60214B7A001E70214B2C
:10BC2000D2191C602300D200183363609B18E360B4
:10BC30009B18C022C520636125706570A7702572AE
:10BC40006572A77225746574A774FF24164B4903A7
:10BC50001D60164B52001D70154B80001D70154B5A
:10BC600099501A58A2433F3C22431A50A12219600E
:10BC7000C42441461048D2008150A4001A590F49EB
:10BC80001140C02212020A431A510D4BC2580D4BEB
:10BC900000201A60B4E7034B1A60B1E7D8210020F6
:10BCA000F0210020F8210020F4210020E8210020CC
:10BCB000E921002000E100E000100140FF00FFFF4B
:10BCC00004050000EC21002010B50B4B1B68002B75
:10BCD0000BD0002A07D0002805D0036808201C7C60
:10BCE000002C04D010BD0720FCE70820FAE75974A7
:10BCF0005A610020F6E7C046F8210020F0B5354B28
:10BD00001C68002C06D0002804D00723042903D87F
:10BD10001800F0BD0823FBE74369002BFAD0437CF1
:10BD20000025012B44D0EFF30583DB05DB0D102646
:10BD3000002B25D1A4196378A6785F1CFFB2BE4200
:10BD40003AD02678BE4235D05E00F6186368F60019
:10BD50009C4666440423002EDAD0033B33707060A7
:10BD60001D4B1E48C358F160B3608021802372616F
:10BD70001B4A5B00490335616770D1500023C7E758
:10BD8000103B5EB2002E19DBB608C036144FB60069
:10BD9000F75903263340DB00DF40BB093340DBB2F9
:10BDA0000026012BC6D00836032BC3D00836C1E7C6
:10BDB0000D00B8E70423ABE70027C2E70F26094FC1
:10BDC000DBB2BC461E40083EB608B6006644776843
:10BDD000DFE7C046F8210020040500000010014004
:10BDE00000E100E018ED00E010B52D4B02001B68EB
:10BDF0000820002B2BD0002A29D05169002926D0F9
:10BE000000211174EFF30581C905C90D083000291F
:10BE10001ED11B1858789C78411CC9B28C4231D075
:10BE20001C788C422CD0440024185868E4008446C6
:10BE300064440420002C0AD00238207062605970DB
:10BE4000802180230020174A49035B00D15010BD98
:10BE5000103948B2002817DB8008C030114C800030
:10BE6000045903200140C900CC40A1090140C9B2D6
:10BE700000200129CDD008300329CAD00830C8E7F6
:10BE80000420E4E70021CBE70F20074CC9B2A44609
:10BE9000084008388008800060444468E1E7C046F4
:10BEA000F821002000E100E018ED00E0002804D0B7
:10BEB000034B5B6D0360002070470320FCE7C04626
:10BEC000FC21002082B00190019B002B14D0019B2B
:10BED0000A48013B01930138C046C046C046C046EF
:10BEE000C046C046C046C046C046C046C046C04622
:10BEF000F1D1019B002BEAD102B07047E7030000AB
:10BF0000F0B500281EDB1B4A03249446FF221700CD
:10BF10008308C026C0B20440E4008901A7400A405B
:10BF2000A2409B006344B6009D59BD432A439A51E9
:10BF30001F23C02118401E3B83400E4A4900535026
:10BF40001360F0BDFF240C4A0325944622000F2302
:10BF5000C0B20540ED008901AA400C40AC4003404E
:10BF6000083B9B089B006344DE6996433443DC61D5
:10BF7000DEE7C04600E100E000ED00E070B54425DA
:10BF8000164C0820635D002B00D070BD4022FF21BD
:10BF9000013BA3540132A1540132A3542362013264
:10BFA0006362A362E36223636363A363E363FC39B5
:10BFB0000238A35423606360A360E360236163617C
:10BFC000A361E361FFF79CFF8021C123044A9B002A
:10BFD0000906D150012300206355D6E754220020E2
:10BFE000006000404423034AD05C431E9841C0B225
:10BFF0007047C04654220020F0B5474680B4504CEC
:10C000000825231820331E787F2E03D8280004BC6F
:10C010009046F0BDCD78AC46002D33D00425A8461F
:10C0200025680126013500D185E0B500635901334B
:10C030002FD0731C9D00675901372BD0B31C43458B
:10C040001ED29D006759013724D0F31C434517D2F7
:10C050009D00675901371DD0331D434510D29D0007
:10C060006759013716D0731D434509D29D006759A2
:10C0700001370FD00636464502D2E36901333ED080
:10C080000425C3E72569013530D0082305269846E5
:10C09000CBE733006251624627185EB220373E700C
:10C0A000002A28D08B78002B14D10300A0254A78D1
:10C0B000C133FF3392009B00ED055A51CB78002B22
:10C0C00020D1A4193C340B7822789B0113432370B0
:10C0D00000259BE7A022D2059446E0250227830095
:10C0E0006344ED005A59BA435A51E7E70425042640
:10C0F0001D7004232261E3183C331870D2E7072334
:10C100001C25C7E70F4AB6009446A2226644D20017
:10C110000B780D4CB15800022140F82464012040F6
:10C12000C024B1501B04A402B15823401843084353
:10C13000B05000256AE7002622601E70B2E7C046B4
:10C140005422002000600040FFE0FCFF0023F0B517
:10C15000254C22182032D356032B18DDE3183C332C
:10C160001B789B09032B33D0012B3AD0C025AD029D
:10C17000A023DB059C46E02380006044DB00C1581F
:10C180001A4C2140C150C2582A43C250F0BDD8B207
:10C190000328FBD8164DA227AC4601269800604420
:10C1A000FF00C5593543C55118006546002740308A
:10C1B000800080B247510029E8D0127852B2920034
:10C1C0001259002AE2D09E40C1239B00EE50DDE7C9
:10C1D000A223A022DB00D205D258012383401A42B9
:10C1E000C4D18025AD02C3E754220020FFFFFCFF2D
:10C1F00000600040A223A022DB00D205D358C34038
:10C20000012018407047C046F0B54D465F4656467F
:10C210004446F0B4B04A83B013680025012B00D126
:10C2200066E1AE4B1A68012A00D16FE1AC4B1A6887
:10C23000012A00D17AE1AB4B1A68012A00D185E1CD
:10C24000A94B00271A68012A00D190E12B070BD0D7
:10C25000EB0700D5B1E1AB0700D5BDE16B0700D519
:10C26000C8E12B0700D5D4E1002D06DB03B03CBCB0
:10C2700090469946A246AB46F0BD0023012599465B
:10C2800040339B46B846994C6D425B46E1564B1C89
:10C290002BD0C9B2C023080098432B000122C34011
:10C2A00000271A4222D0231820331B7889095BB259
:10C2B0009B00E358002B00D1E7E0824017000329E0
:10C2C00000D1E7E0A026F605B446E02682006244ED
:10C2D000F6009659B603B60FB4464646374200D02C
:10C2E000ACE06646032E00D14BE100274123E15626
:10C2F0004B1C2ED0C9B2C023080098432B0001224A
:10C30000C3401A4225D08B090093231820331B7891
:10C310005BB29B00E358002B00D1C9E082409446F9
:10C32000009A032A00D1C9E0A026F605B246E0260D
:10C3300082005244F60096591100B603B60FB24679
:10C3400042466646164200D085E05246032A00D196
:10C350006BE14223E1564B1C2DD0C9B2C02308002B
:10C3600098432B000122C3401A4224D08B0900932A
:10C37000231820331B785BB29B00E358002B00D1BD
:10C380008CE082409446009A032A00D18BE0A026DC
:10C39000F605B246E02682005244F6009659110096
:10C3A000B603B60FB24642466646164261D15246C1
:10C3B000032A00D173E14323E1564B1C26D0C9B2B6
:10C3C000C02308009843C540BF3B2B421ED0221813
:10C3D00020321278890952B29200A258002A72D0F3
:10C3E00083401D00032972D0A026F605B446E0263E
:10C3F00083006344F6009E59B603B60FB446464622
:10C40000354211D16546032D00D12BE1002F00D11B
:10C410002CE7A223A022DB00D205D3584D46984535
:10C4200000D123E7984630E76546022DEED1032977
:10C4300000D15DE1002AE9D09047E7E76646022E89
:10C4400000D052E7032900D146E10027002B00D19C
:10C450004CE798474AE75246022A00D079E7009A0B
:10C46000032A00D13CE1002B00D172E700999847E4
:10C470006FE75246022A9ED1009A032A00D133E187
:10C48000002B98D00099984795E7032900D02DE715
:10C49000824017004A463A43914613E70099032920
:10C4A00089D1824094464A466646324391466EE7B9
:10C4B0000099032900D04CE7824094464A466646DC
:10C4C0003243914630E70329A0D183401D004B46FB
:10C4D0002B43994688E7C046006100400461004054
:10C4E000086100400C6100407C6100405422002043
:10C4F000C1218148890045581D4000D191E60023A3
:10C5000013607E4B1A68012A00D08FE6C1227A4957
:10C510009200895802220A4200D187E60021196060
:10C52000774B15431A68012A00D084E6C12272496C
:10C530009200895804220A4200D17CE60021196049
:10C54000704B15431A68012A00D079E6C1226A4966
:10C550009200895808220A4200D171E60021196030
:10C56000694B15431A680027012A00D06EE61F6048
:10C5700080231B061D43A022A223D205DB00D7582F
:10C5800064E6032900D060E78026B6020096E02624
:10C59000F6009659B4465D4EB246664657463E4052
:10C5A000E027FF00D651D659B4466746009E3E4369
:10C5B000E027FF00D651012748E7A2234E4ADB00BF
:10C5C000D058D158524C8903C0042368890FC00E3B
:10C5D0009847AB0700D441E64E4B474A4C4CD058E5
:10C5E000D158C00489036368890FC00E98476B0750
:10C5F00000D436E6A323404ADB00D058D158444C3F
:10C600008903C004A368890FC00E98472B0700D484
:10C610002AE6394A404B3E4CD058D158C0048903D1
:10C62000890FC00EE36898471EE6009A032A00D0DF
:10C6300019E7802292020192E022D2009246334E04
:10C640008A58013732409446524666468E508A5880
:10C65000FFB294466646019A324394465246664675
:10C660008E5000E7032900D0E4E68025AD02009556
:10C67000E025ED005E590137B446244EFFB2B246C4
:10C68000664655462E403500E026F6009D519D59E0
:10C69000009E2E433500E026F6009D51CAE6009A22
:10C6A000032A00D0ECE6802292020192E022D2001E
:10C6B0009246164E8A580137324094465246664694
:10C6C0008E508A58FFB294466646019A3243944689
:10C6D000524666468E50D3E6C026B602009656E70E
:10C6E000C02292020192A7E7C02292020192DDE7E6
:10C6F000C025AD020095BBE700600040046100402A
:10C70000086100400C6100407C610040FFFFFCFFBD
:10C7100054220020140500001C050000C12210B5A1
:10C72000604B92009A5884B092054DD55E4A1168CC
:10C73000002949D0002111608121C2228900920084
:10C7400099505A4B9A7E002A02D10121584A116011
:10C75000022269460A7090215248C900425842504C
:10C7600069460392DA7D68460A72DA6819680192AE
:10C770000022DA751A765B6898474E4A1368002BD8
:10C7800010D04A4B988A997D81424FD9002111607F
:10C790009A8A9968895C9A8A013292B29A82464B47
:10C7A000404AD150454B1A68002A0BD000221A602B
:10C7B0003E4B9A7E002A02D001213A4A1160DA7D6E
:10C7C000002A42D104B010BDC123364A9B00D35881
:10C7D0005B07D2D53A490B68002BCED0334BD87DBE
:10C7E00000283FD10860A321C90052585A7ED97D44
:10C7F0009142C2D11A7E002A41D19A7E002A02D1EA
:10C8000001212B4A11608120C2222649800092001A
:10C810008850002268460121DA755A7E0170027242
:10C82000DA68196801925B689847A6E700201060F3
:10C830000029B7D06A46107011729A689875196805
:10C8400001925B6868469847ACE700226846012180
:10C85000DA755A7E01700272DA68196801925B68B3
:10C860009847AFE700200860A320C000597E125807
:10C87000D86842545A7E0132D2B25A76B6E7DA7597
:10C880001A69D968DA6000226C46587E1A765A76A0
:10C890000132207201912270196868465B689847DE
:10C8A0006BE7C04600200040242100409C2200206D
:10C8B000042000401C2100401C05000044210040D1
:10C8C0000821004029DF704728DF7047F0B54D464A
:10C8D00044465F465646F0B45A4D85B02C78012C3C
:10C8E00066D0002C4CD0022C15D0032C0CD1564B0A
:10C8F0001868FFF7E9FF021E06D0112860D108234F
:10C90000524A11680B43136005B03CBC90469946EF
:10C91000A246AB46F0BD4D4B9A461B6803934C4B69
:10C9200098461B789E00F6188023B6005B051969AF
:10C93000464437690904090C38009B4605F05EF847
:10C94000414B814618605B461969F088013F090434
:10C95000C019090C05F052F881452CD00323039C23
:10C960009C4353461C603B4B1B68002B02D1023397
:10C97000234240D00022384B1A7000F007FBC3E777
:10C98000364B1C60364B1C60314B5A78002ABBD0AA
:10C9900019788A00521892009B18D988314A1B795D
:10C9A0001160032B24D0042B22D0012BACD12B708F
:10C9B00000F090FCA8E70123039A9A431443D0E7C0
:10C9C000234F387884002418A4003E19F068736956
:10C9D00031794600361823480C3400683C19009021
:10C9E0002148B60036582000B04704232B708BE74F
:10C9F00000F03CF888E7184A48461370FFF764FFD8
:10CA0000021E00D180E7112804D108231C4353469D
:10CA10001C6079E74346187884002418A40020009D
:10CA20001E1973693179F6680C307400A4190D4E23
:10CA3000A4003668404400960B4EA459A047042336
:10CA40002B7061E7BC230020A0230020A42300203A
:10CA5000D4220020A8230020BD230020B8230020DA
:10CA6000B4230020B8220020BC220020F0B55F468D
:10CA700056464D464446F0B45D4A83B011788B006B
:10CA80005B189B00D318DA681F6991468022520513
:10CA9000116990464A4652004A449000554A1E8900
:10CAA00012181089548952684443A418DA88524BEA
:10CAB00095199B46924600235A4609041360090CB7
:10CAC0003800ED1904F0DEFF00295FD143461B69F1
:10CAD0009BB29A4544D0AC4200D177E04B46032B41
:10CAE0003ED043461969B8190904090C04F0CAFF7D
:10CAF000424B89081960434619690904090C28004A
:10CB000004F0C0FF002925D08026760531693369FD
:10CB100089B29946A0B204F071FF6A464B4680463E
:10CB2000D380AFB2D188380004F068FF43466A462C
:10CB3000D380D38880B283423FD0346931693800D2
:10CB400089B204F09FFF5B462404240C89B2641A66
:10CB5000A4081C6002222A4B1A70FFF7B7FE0EE0F1
:10CB600080235B05196938000904090C04F046FFAD
:10CB70000322244B1860224B1A70FFF7A7FE03B064
:10CB80003CBC90469946A246AB46F0BD4B46032BB3
:10CB9000E6D043461969B8190904090C04F072FF7C
:10CBA000164B8908196043461969AC42A5D1022287
:10CBB000134B1A70FFF78AFEE1E75B4624042D044D
:10CBC000240C2D0C641BA4081C60C3E7002EC7D0E6
:10CBD0004B46032BC4D043461969B8190904090C04
:10CBE00004F050FF054B8908196043461B69B1E703
:10CBF000D4220020BC220020C0230020A823002033
:10CC0000BC230020A0230020082170B50C00244A7A
:10CC100082B013681C4009D08B431360214B224A19
:10CC20001B789B009B58984702B070BD1F4D2B7816
:10CC30009800C01880002A18117904292AD0D668D3
:10CC40005369720092191A4E920036680C300096A1
:10CC5000184E281896590022B04702212A789300CE
:10CC60009B189B00EB181C71DC80D9601C615C6117
:10CC70001C816B780132013BD2B26B700A2A06D05C
:10CC80002A7000220C4B1A70FFF720FECCE700231D
:10CC90002B70F6E70122084B1A70FFF717FEC3E767
:10CCA000A4230020BD230020C01B0200D4220020AA
:10CCB000B8220020BC220020BC230020802230B5F6
:10CCC0005205234B14691B682404013B240C5C436C
:10CCD000204B83B05869431C37D011690904090CF3
:10CCE00004F08CFE80235B0519691B4B0904013895
:10CCF000090C41431A682000FFF7E4FD002806D024
:10CD0000112806D10823154A11680B43136003B09C
:10CD100030BD134D2B789A00D2189200AC180C320B
:10CD2000AD18E268636921795400A4180D4AA40083
:10CD3000126800920C4AA45802002800A04704225E
:10CD40000A4B1A70FFF7C2FDE1E75069CAE7C04617
:10CD5000A023002000100010A8230020A4230020FE
:10CD6000D4220020B8220020BC220020BC230020B6
:10CD700030B5254B83B05869431C40D080235B05F8
:10CD800019690904090C04F039FE040080235B05CD
:10CD9000186919691A691D4B09041B68000492B2CD
:10CDA000090C013C000C920859436043FFF78AFDCF
:10CDB000002806D0112806D10823154A11680B4314
:10CDC000136003B030BD134D2B789A00D218920037
:10CDD000AC180C32AD18E268636921795400A418CC
:10CDE0000D4AA400126800920C4AA45802002800C0
:10CDF000A04704220A4B1A70FFF768FDE1E7802381
:10CE00005B055C69C2E7C04600100010A02300204B
:10CE1000A4230020D4220020B8220020BC2200201D
:10CE2000BC230020F0B58027284C7F052278396983
:10CE300093009B189B00E3181A89DD881B69AD18C5
:10CE4000ED18090483B0090C280004F01BFE204BE8
:10CE50000E005869431C37D039690904090C04F0E5
:10CE6000CDFD80235B0519691A4B09041A680B0C68
:10CE7000411E594328008919FFF724FD002806D0D8
:10CE8000112806D10823144A11680B43136003B01C
:10CE9000F0BD23789D00ED18AD0062190C356419C2
:10CEA000D568536911796A0052190C4D92002D68AA
:10CEB00000950B4D555902002000A8470422094B4C
:10CEC0001A70FFF703FDE2E77869CAE7D422002071
:10CED00000100010C0230020A4230020B82200204E
:10CEE000BC220020BC230020082330B51F4D83B096
:10CEF0002C68234214D1A30702D501231C432C60C4
:10CF000002221B4B1A701B4B1868FFF7DDFC002830
:10CF100004D011280DD108231C432C6003B030BD70
:10CF20009C43134B144A1B782C609B009B589847DA
:10CF3000F4E7124D2B789A00D2189200AC180C32FC
:10CF4000AD18E268636921795400A4180C4AA40062
:10CF5000126800920B4AA45802002800A04704223D
:10CF6000094B1A70FFF7B2FCD8E7C046A423002093
:10CF7000BD230020A0230020C01B0200D4220020DB
:10CF8000B8220020BC220020BC23002030B5234B57
:10CF900083B05869431C3CD080235B0519690904A0
:10CFA000090C04F02BFD0300802252051069116961
:10CFB0000004013B000C09045843090C04F01EFD59
:10CFC000FFF782FC002806D0112806D10823144A56
:10CFD00011680B43136003B030BD124D2B789A00DB
:10CFE000D2189200AC180C32AD18E268636921794E
:10CFF0005400A4180C4AA400126800920B4AA458CA
:10D0000002002800A0470422094B1A70FFF75EFCBB
:10D01000E1E780235B055B69C6E7C04600100010AE
:10D02000A4230020D4220020B8220020BC2200200B
:10D03000BC230020082370B52B4D82B02C682342FE
:10D0400009D09C43294B2A4A1B782C609B009B5893
:10D05000984702B070BD0122244B1A70254B5869C5
:10D06000431C3DD080235B0519690904090C04F0B9
:10D07000C5FC060080235B05186919691A691E4BF7
:10D0800009041B68000492B2090C013E000C9208CE
:10D0900059437043FFF716FC0028DAD0112803D15A
:10D0A00008231C432C60D4E7144D2B789A00D21827
:10D0B0009200AC180C32AD18E26863692179540013
:10D0C000A4180F4AA400126800920E4AA458020045
:10D0D0002800A04704220C4B1A70FFF7F7FBB8E7B3
:10D0E00080235B055E69C5E7A4230020BD230020E3
:10D0F000C01B020000100010A0230020D42200203A
:10D10000B8220020BC220020BC230020F0B55646E7
:10D110004D4644465F46F0B4644B85B01E68984661
:10D1200008231A003240914600D077E0604F3D78E6
:10D13000AB0003935B199B00FB181A69541EDA8835
:10D140001B89A418E41880235B051969594B1B68D7
:10D150009A46002B45D1584B1B689B4680235B05A4
:10D16000196920000904090C04F048FC834567D3C1
:10D1700053465DD0002B5DD1039B9C466544AD00BA
:10D180007A19117904296DD02800D4685369620096
:10D1900012194A4C920024680C300094484C3818FC
:10D1A00014590022A04751463A7893009B189B00DF
:10D1B000FB1819715146D9800221D9605146196175
:10D1C0005961514619817B780132013BD2B27B70A3
:10D1D0000A2A4DD03A7000223A4B1A70FFF776FBBC
:10D1E00015E0354B09041B68090C20009B4604F030
:10D1F00005FC5845B2D14A46334B1A6001231E4301
:10D2000043464A461E60314B1A70FFF7BFFE05B019
:10D210003CBC90469946A246AB46F0BD9E43434671
:10D220001E602A4B2A4A1B789B009B589847EEE7C2
:10D23000002B05D00322254B1A70FFF7F3FDE6E71C
:10D240000022214B58461A60204B02321A70FFF719
:10D250003BFB0028DBD011280DD108231E43434699
:10D260001E60D4E70122174B1A70FFF72FFBCEE7A1
:10D2700000233B70AFE73B789A00D2189200BC18AD
:10D2800063692179E4680C32BF18620012190B4CF3
:10D290009200246800940A4C145902003800A047F8
:10D2A0000422084B1A70FFF711FBB0E7A4230020FB
:10D2B000D4220020C0230020A0230020B822002078
:10D2C000BC220020BC230020A8230020BD23002076
:10D2D000C01B0200F0B54F464646C0B48027444C00
:10D2E0007F0526783969B500AB199B00E318DA8809
:10D2F00089B283B08A421AD8188959691B69920881
:10D30000C018FFF7DFFA002806D011282FD1082314
:10D31000384A11680B431360AD19AD006419E288F7
:10D32000354B1A6003B00CBC90469946F0BD386985
:10D3300059690004000C101A1D893A691B6992B2E0
:10D34000EB18091892081818FFF7BCFA002806D045
:10D3500011282BD10823274A11680B43136080231F
:10D360005B051B69244A1B041B0C1360DAE7237856
:10D370009F00FF18BF00E21953691179D2689946DE
:10D3800094461E4B52001B68624400931C4B920053
:10D39000D3580C37E719984602004B463800C0476F
:10D3A0000422184B1A70FFF791FAB5E723789D0015
:10D3B000ED18AD0062190C356419D56853691179FF
:10D3C0006A0052190D4D92002D6800950C4D55596B
:10D3D00002002000A84704220A4B1A70FFF776FAD1
:10D3E00080235B051B69044A1B041B0C136099E72F
:10D3F000D4220020A4230020B4230020B82200203F
:10D40000BC220020BC230020F0B546464F4608232E
:10D41000C0B4774E83B0346823426DD1754B1A681F
:10D42000571C1F60744B1D68002D28D1734B187852
:10D430009946802385002D185B051969AB00984635
:10D440004D4645442B690904581EEB88090CC01849
:10D450002B89C01804F0D2FA874265D3684B60D09C
:10D460001F68002F00D18BE001231A00224050D109
:10D470001C43644B34601A70FFF788FD44E00421BC
:10D48000604B197080235B051F693F043F0C5743B5
:10D490005D4A5069421C42D019690904090C04F024
:10D4A000ADFA80235B05196901380904090C414371
:10D4B0002A003800FFF706FA002825D011285BD093
:10D4C0004E4D2B789A00D2189200AC180C32AD1841
:10D4D000E268636921795400A4184C4AA4001268D8
:10D4E00000924B4AA45802002800A0470422494B4E
:10D4F0001A70FFF7EBF907E09C43424B464A1B7852
:10D5000034609B009B58984703B00CBC90469946EA
:10D51000F0BD03223B4B1A70FFF784FCF4E7586917
:10D52000BFE71B68002B9FD10222364B38001A70D0
:10D53000FFF7CAF90028E7D011281DD04B461B7809
:10D540009A00D2184B4692009D180C3214006B6959
:10D550002979ED684C446A0052192C4D92002D68CF
:10D5600000952B4D555902002000A8470422294B55
:10D570001A70FFF7ABF9C7E708231C433460C3E711
:10D58000297904292BD04046EC686B696200121996
:10D590001E4C920024680C3000941D4C48441459D1
:10D5A0000022A0474B4602211A7893009B189B004B
:10D5B0004B44D9601F71DF801F615F611F814B4643
:10D5C00049465B780132013BD2B24B700A2A0CD03B
:10D5D0000A7000220F4B1A70FFF778F994E70122C6
:10D5E0000C4B1A70FFF772F98EE700230B70F0E70F
:10D5F000A4230020A0230020A8230020D422002060
:10D60000C0230020BD23002000100010B8220020FD
:10D61000BC220020BC230020C01B020030B5154BEB
:10D6200083B01868FFF750F9002806D0112806D1FA
:10D630000823114A11680B43136003B030BD0F4D2E
:10D640002B789A00D2189200AC180C32AD18E26810
:10D65000636921795400A418094AA4001268009251
:10D66000084AA45802002800A0470422064B1A705A
:10D67000E3E7C046A0230020A4230020D4220020FA
:10D68000B8220020BC220020BC230020F0B5454673
:10D6900057464E46E0B41F4D984608AB1B886E783F
:10D6A00094469A4604240A2E2DD02B78F418092C7F
:10D6B00000DD0A3C142254432C192071604660613D
:10D6C00020000C30914684C984C041465246E18016
:10D6D00022810024104A013611786E70A14212D1C5
:10D6E0004F465F43ED190D4BE98819602B79032BE9
:10D6F00007D0042B05D0012B05D11370FFF7EAFDED
:10D7000001E0FFF7B3F920001CBC90469946A24601
:10D71000F0BDC046D4220020BC230020B822002047
:10D72000F0B5474680B4764C0425237882B01A00C1
:10D730000600AA4312D0022814D003280ED10820D4
:10D7400070490A6810425BD0022B52D0032B01D0E3
:10D75000012B03D182430A60FFF7B8F802B004BC82
:10D760009046F0BD022B44D0032B58D0012BF5D1AD
:10D770000821644A1368194200D095E0624D63495C
:10D780002B7809689A00D2189200AB18DF887F1AAC
:10D79000BFB2DF80002F00D08BE059690C328C467D
:10D7A0001979DB68A8185A00D218594B92001B68E7
:10D7B0000093584BD358002298466346C0472A78B6
:10D7C00093009B189B00EB181F71DF80DE601F61C8
:10D7D0005F611F816B780132013BD2B26B702A709E
:10D7E0000A2A01D100232B7000232370FFF76EF863
:10D7F000B4E7494B494A1B789B009B589847ADE7D3
:10D8000047490A6801320A60032A55D0022BA3D186
:10D81000414B444A1B789B009B5898479EE7082140
:10D82000384A136819423FD13F4B374D1A68571C8D
:10D830001F602B78984680235B05196943469E003C
:10D84000F3189B00EB181A690904501EDA881B892B
:10D850008018C018090C04F0D1F8874200D27BE789
:10D8600048D04644B600AA19117904293DD03000A9
:10D87000D668536972009219254E920036680C30B2
:10D880000096244E281896590022B0470021022005
:10D890002A7893009B189B00EB181971D980D860E7
:10D8A00019615961198195E78B431360FFF70EF8F1
:10D8B00054E7FFF70FFD51E7134F3B789A00D2185A
:10D8C0009200BE1873693179F6680C32B81872008C
:10D8D00092190F4E9200366800960E4E96590D2200
:10D8E000B0472570FEF7F2FF38E701232370FEF7FB
:10D8F000EDFF33E70D4B1B68002BB2D12CE7C04680
:10D90000BC230020A4230020D4220020B423002024
:10D91000B8220020BC220020BD230020D41B02001E
:10D92000B8230020C01B0200A0230020C023002039
:10D9300010B500202C2400220221484B1855143425
:10D94000185502341A5302341A531034185502343D
:10D950001A530234D9601876196259639964D965EB
:10D960001A705A701A71DA801A615A611A815A83D0
:10D970005A629A629A83DA859A63DA631A86DA645B
:10D980001A651A665A661A531034185502341A5317
:10D9900002341A531034185502341A5306341951EC
:10D9A00004341A5104341A510C3C1A5310341855CB
:10D9B00002341A530634195104341A5104341A51DA
:10D9C0000C3C1A531034185502341A5306341951AA
:10D9D00004341A5104341A510C3C1A53103418559B
:10D9E000BA201A52063019501967C2315A50043100
:10D9F0005A500C395A679A675A52194B1A80194B68
:10DA00005869431C26D080235B0519690904090C59
:10DA100003F0F4FF0300802252051069033B000469
:10DA2000000C5843104B0021186000230F4A0020BF
:10DA300013600F4A136013815381D3609382D382A2
:10DA40000C4A11700C4A13600C4A136004220C4BF0
:10DA50001A6010BD80235B055B69DCE7D4220020DF
:10DA6000AC23002000100010B0230020A0230020D1
:10DA7000BC220020BC230020B8230020B4230020B7
:10DA8000A4230020F8B54F464646C0B4334B0400EB
:10DA90001B680D0008205B0703D40CBC9046994618
:10DAA000F8BD002C55D0002953D02368002B50D04E
:10DAB000802252051369A6889BB201389E42ECD899
:10DAC0000F2EEAD9E388002BE7D073439946244907
:10DAD000244B0F6858698846B944431C3BD01169F0
:10DAE0000904090C03F08AFF802149050B691B0416
:10DAF0001A0C431E534307209945CED8B307CCD107
:10DB0000194B03381E889946022EC6D00C23734346
:10DB1000164AC0C5D0184760206801369850606822
:10DB2000A5888446E08864460833D45068430A696F
:10DB30000B6992B280180C69013899B203F0ACFFFE
:10DB40004346A4B26043C7191F604B4600201E80A5
:10DB5000A3E70E20A1E75069C6E7C046A423002032
:10DB6000B023002000100010AC230020BC220020B5
:10DB7000F0B5134B1C680823640701D41800F0BDEE
:10DB800000281BD0002A19D00468013B012CF5D8CD
:10DB900065000C4E2D19AD00AF59002FEED0751950
:10DBA0002E894068714309186889464368683618A9
:10DBB000B142E3D2146051600023DFE70E23DDE7BA
:10DBC000A4230020BC220020F0B51E4C05002468D0
:10DBD00083B00820640701D403B0F0BD00292ED023
:10DBE000002D2CD02C680138012CF5D86600341992
:10DBF000154FA400E659002EEED06E683C19B446CD
:10DC00002789668964687E433419A445E4D2002AD2
:10DC1000E2D09742E0D3D418A742DDDB09308C076D
:10DC2000DAD103242342D7D166462642D4D10093C9
:10DC30000F3813000A002900FFF728FDCCE70E205B
:10DC4000CAE7C046A4230020BC220020F0B51E4C29
:10DC50000500246883B00820640701D403B0F0BD38
:10DC600000292ED0002D2CD02C680138012CF5D89D
:10DC700066003419154FA400E659002EEED06E68E8
:10DC80003C19B4462789668964687E433419A445E3
:10DC9000E4D2002AE2D09742E0D3D418A742DDDBD9
:10DCA00009308C07DAD103242342D7D166462642B5
:10DCB000D4D100930C3813000A002900FFF7E6FCCA
:10DCC000CCE70E20CAE7C046A4230020BC220020D7
:10DCD000F0B546464F46C0B41600284A0500126803
:10DCE00083B00C000820520704D403B00CBC90464B
:10DCF0009946F0BD00293ED0002D3CD00A6801387D
:10DD0000012AF2D81E49894651008A1849469200D4
:10DD100089580029E9D061684A448C4611898846AF
:10DD200047465189526879438A189445DDD2002EBE
:10DD3000DBD0B045D9D3F2189045D6DB0930AA071D
:10DD4000D3D103221342D0D1614611408846CCD1B1
:10DD5000634419003200280003F00FFF0C232268EF
:10DD6000009653434A462000D65802212B004246D3
:10DD7000B0474046B9E70E20B7E7C046A4230020CD
:10DD8000BC220020F0B546464F46C0B4244B83B0B9
:10DD90001B6805000E0008245B0705D4200003B0B3
:10DDA0000CBC90469946F0BD002837D00368013C72
:10DDB000012BF3D85A00D3181A499B005A58002A4D
:10DDC000ECD04268CB1890465F891A89586857434F
:10DDD0003F189146B845E1D2434609349B07DDD14F
:10DDE00043461100181A03F04DFE093C0029D5D115
:10DDF0004946300003F046FE89B20029CED1002EFC
:10DE0000CCD04346F3189F42C8D30022330000927F
:10DE100029000320FFF73AFC0400BFE70E24BDE70A
:10DE2000A4230020BC220020074B1A6808235207B5
:10DE300001D418007047002804D0044B5B780360BD
:10DE40000023F6E70E23F4E7A4230020D4220020C9
:10DE50008021A022090410B50C00A120044BD2059A
:10DE6000D358C0009C430B4002491450535010BD7E
:10DE7000040500000C050000F8B54F4646460400B6
:10DE8000C0B4112809D0122839D0132839D0142849
:10DE900039D00CBC90469946F8BD0025012911D017
:10DEA00000291FD00229F4D16B005B191F4DED181A
:10DEB0006E78002EEDD01E4B1B68002BE9D0300091
:10DEC0009847E6E7194F6B0098465B19FE5CFB1814
:10DED0005B78002B19D143465B19FF18BA78154BB4
:10DEE0005A55E6E71448FDF77FFF6A000F4B5219B9
:10DEF0009B189E780F4B5B5DB342CAD1D9E70125D1
:10DF0000CCE70225CAE70325C8E70C4B0A48994627
:10DF10000B4B4A461B689900C9184900FDF7EEFEF5
:10DF20000028D8D14B461C70D5E7C04610240020ED
:10DF30004024002048240020F0230020C423002097
:10DF4000EC230020F8B5C54B1B68DB0700D4F8BDF7
:10DF5000C34A1478172CFAD8C249A300CB589F465D
:10DF60008021A022C9030C00A120BF4BD205D358A9
:10DF7000C0009C430B40BD4914505350BC4B002281
:10DF80001B68BC489900C918FDF7B8FEDFE7A0235D
:10DF9000F021B64ADB05490499500021043A995012
:10DFA000D5E78021A022C9030C00A120AE4BD205E9
:10DFB000D358C0009C430B40AC4914505350AC4B59
:10DFC00000221968AB48FDF799FEC0E7AA4BA120D3
:10DFD0001968E0235B048B43A0210026C905C0001B
:10DFE000A24C0B50A04B0E51CD58F0235B046B405C
:10DFF0008025AD032B4000D128E10D5008230E51A0
:10E00000032111709A4A9B48116800225943FDF779
:10E0100075FE9CE7984BA1201968E0235B048B43B5
:10E02000A0210026C905C000904C0B508E4B0E510C
:10E03000CD58F0235B046B408025AD032B4000D10D
:10E04000FFE00D5028230E510421DAE7A023A1227E
:10E05000E021DB05D2004904802499500021834847
:10E06000A40319501C50995071E7844D2800FDF706
:10E07000BBFE11231C1B00D1C8E0002800D0C5E066
:10E0800080237D4E1B043360012C0FD0C8306421E7
:10E09000604303F0B3FC764B00221968414328002B
:10E0A000FDF72CFEF022336852041340A0226F4982
:10E0B000D2055350A1230021DB00D15047E76E4B1E
:10E0C000A1211A68F0235B049343A022C900D20562
:10E0D00053500021654BD15039E7674BA120196897
:10E0E000E0235B048B43A0210027C905C0005F4DDE
:10E0F0000B505D4B4F51CE58F0235B04734080268C
:10E10000B603334000D190E00E5028234F51022C2B
:10E1100079D0147076E7A023A122C021DB05D200BC
:10E120004904C024995000215048E40319501C5060
:10E1300099500CE7A023A122D021DB05D20049048D
:10E140008024995000214948E40319501C509950EB
:10E15000FDE6A023F021A122DB054904D20099505D
:10E160000021424A9950F2E6E022434B52041B68D8
:10E17000A1219A43A023C900DB0580245A50002224
:10E180003A48A4031A501C505A50E0E63A4BA120DA
:10E190001968E0235B048B43A0210026C905C00059
:10E1A000324C0B50304B0E51CD58F0235B046B407A
:10E1B0008025AD032B4041D00D500E510523137027
:10E1C0002B4B002219682B484900FDF797FDBEE64E
:10E1D000294BA1201968E0235B048B43A021002672
:10E1E000C905C000214C0B501F4B0E51CD58F023D8
:10E1F0005B046B408025AD032B402CD00D500E519D
:10E2000006231370DBE6163B1470FBE6F0231A4A74
:10E210005B041168A1200B40A021C000C9050B5070
:10E22000002312480B50136091E64E510B5004230B
:10E23000022C00D06DE7023B1470E3E60D510B5049
:10E24000BCE70D510B5004230421DAE60D510B50AD
:10E2500002230321D5E60D510B50D1E71C240020E9
:10E2600044240020E81B0200040500000C05000007
:10E27000EC23002020240020C8230020CC230020F1
:10E2800010B50378112B15D0122B15D0132B03D0FA
:10E290000322142B01D010BD022253009A18074B01
:10E2A0009B1858780028F6D0054B1B68002BF2D03D
:10E2B0009847F0E70022F0E70122EEE71024002063
:10E2C00040240020002303280DD8A223A022DB0035
:10E2D000D205D258054B8000C05801238340934398
:10E2E0005A1E9341DBB200200B707047D01C020015
:10E2F00070B5DA4B04001B680020DB0700D470BD4A
:10E30000172CFCD8D64AA300D3589F468021A022C0
:10E31000C9030C00A120D34BD205D358C0009C43A5
:10E320000B40D14914505350D04B00221B68D048A9
:10E330009900C918FDF7E2FCE1E78021A022C9039A
:10E340000C00A120C74BD205D358C0009C430B4002
:10E35000C54914505350C54B00221968C448FDF7F5
:10E36000CDFCCCE7C34D2800FDF73EFD11231C1B5F
:10E3700000D14BE1002800D048E18023BE4E1B04B1
:10E380003360012C0FD0C8306421604303F036FBAA
:10E39000B64B0022196841432800FDF7AFFCF0227C
:10E3A000336852041340A022AF49D2055350A12331
:10E3B0000021DB00D150A2E7A023F021A122DB0540
:10E3C0004904D20099500021A74A002099501222F6
:10E3D000AA4B1A7093E7A023A122E021DB05D2000B
:10E3E00049048024995000219F48A40319501C50CF
:10E3F00099501322A14B00201A7080E7A023F0212E
:10E40000994ADB05490499500021043A99509B4BE5
:10E4100000201C7073E7984BA1211A68F0235B045D
:10E420009343A022C900D205535000238E490020F7
:10E430005350924A137062E78F4BA1211A68E02370
:10E440005B049343A0220026D205C900864853509E
:10E45000844B1650D558F0235B046B408025AD03E8
:10E460002B4000D1E9E0555028231650022C00D152
:10E47000F2E0824A14707D4A7D48116800225943B7
:10E48000FDF73CFC3BE7A023F021774ADB0549047C
:10E4900099500021043A99500C22784B00201A70B0
:10E4A0002DE7A023A122D021DB05D200490480243E
:10E4B000995000216C48E40319501C5099501422C3
:10E4C0006E4B00201A701AE76B4BA1211A68E023EB
:10E4D0005B049343A0220025D205C9006248535033
:10E4E000604B1550D458F0235B0463408024A40390
:10E4F000234000D199E054500823155003211AE01D
:10E500005D4BA1211A68E0235B049343A022002500
:10E51000D205C90054485350524B1550D458F023DB
:10E520005B0463408024A403234000D18DE02823B2
:10E53000545015500421514A11709CE7E0224E4B73
:10E5400052041B68A1219A43A023C900DB05802443
:10E550005A5000224448A4031A501C505A50474BAA
:10E5600007321A700020CAE6A023A122C021DB05D1
:10E57000D2004904C024995000213B48E4031950BB
:10E580001C50995015223D4B00201A70B7E63A4BAB
:10E59000A1211A68E0235B049343A0220025D20541
:10E5A000C900314853502F4B1550D458F0235B0409
:10E5B00063408024A40323403CD0545015500522CE
:10E5C0002E4B2B481A70294B002219684900FDF781
:10E5D00095FB94E6284BA1211A68E0235B04934342
:10E5E000A0220025D205C9001F4853501D4B1550CD
:10E5F000D458F0235B0463408024A403234028D034
:10E600005450155006221D4B1A70A4E6F0231A4AE6
:10E610005B041168A1240B40A021E400C9050B5143
:10E620000023114C0B51136069E614505350022320
:10E63000032180E714505350C1E715505350042371
:10E64000022C00D015E7023B13E71450535004236B
:10E6500070E714505350D5E7163B0AE71C240020FE
:10E66000481C0200040500000C050000EC230020FB
:10E6700020240020CC230020C82300204424002094
:10E68000234B10B51960234B04001860224B1A600D
:10E69000830712D50D22214B21481A700132DA70FE
:10E6A00001329A7101325A724A080421FCF72CFF98
:10E6B000002820D0E30703D410BD0020E3070DD5C8
:10E6C000A023F022A1210024DB055204C9005A50E6
:10E6D00014495C500C315A500028EDD1124A0021E7
:10E6E0001248FDF7F1FA0028E6D1114A012111483C
:10E6F000FDF7EAFAE0E7FCF75FFF0028DAD10E4AFF
:10E7000000210E48FDF7E0FAE307D9D4E4E7C0465C
:10E71000EC2300201C240020402400201024002092
:10E72000A81C02000C05000045DF0100E01C0200EF
:10E7300051DE0100C81C020081E20100CC1C020075
:10E7400003000720032B00D97047012A13D00129A9
:10E7500017D0002908D0022919D15800C0180D4B34
:10E760001B185A700020EFE75800C018094B1B18FF
:10E770009A700020E8E700220129E8D11A000D3242
:10E78000D2B258000349C3185A540020DCE70720CE
:10E79000DAE7C04610240020E0231D4ADB00D358EE
:10E7A0001C4A1A400023C10701D5C0239B02134312
:10E7B000E0221749D2008B50174B9B58154A1A403C
:10E7C0000023810701D5C0239B021343E022124995
:10E7D000D2008B50114B9B580E4A1A400023410720
:10E7E00001D5C0239B021343E0220C49D2008B5079
:10E7F0000B4B9B58074A1A400023010701D5C02341
:10E800009B021343E0220649D20000208B50704740
:10E8100044000050FFFFFCFF480000504C00005037
:10E820005000005010B50320FFF7B6FF002801D0BC
:10E83000062800D010BD0020FCE7C04610B50388B4
:10E84000102B08D0112B05D1294A1368013B136006
:10E85000002B07D010BD264C2368002B11D00133AC
:10E860002360F7E7012202210020FFF769FF00285B
:10E870002BD0072829D01F4B1B68002BEAD09847C4
:10E88000E8E7012200210020FFF75AFF002808D006
:10E89000072806D0174B1B68002B00D09847236829
:10E8A000DDE7072202210120FFF74AFF002801D0FF
:10E8B0000728EFD1042202210020FFF741FF0028A2
:10E8C000EDD00728E6D12368C9E7072202210120FD
:10E8D000FFF736FF002801D00728CCD10A220021FB
:10E8E0000020FFF72DFF0028B4D00728C3D1B1E7DF
:10E8F000502400204C24002010B5234B82B00C1E65
:10E90000186018D06B460020991DFFF7DBFC00282B
:10E9100001D002B010BD6B460130D91DFFF7D2FC0B
:10E920000028F6D16B46DB79002B26D16B469B790C
:10E93000002B25D12370154B1B68002B01D0002024
:10E94000E7E7012202210020FFF7FAFE002801D0AC
:10E950000728DED1072202210120FFF7F1FE00285F
:10E9600001D00728D5D10A2200210020FFF7E8FEB8
:10E970000028E4D00728CCD1E1E702232370DAE7AE
:10E980000B232370D7E7C0464C24002050240020DE
:10E9900074DF704776DF70477ADF70477CDF70473F
:10E9A000A7DF70473CDF704748DF704710B5FCF7C2
:10E9B0001BFE10BD10B50400FEF7B2FE200001F0F2
:10E9C00077F810BD30B5050085B00C00002A05D1E0
:10E9D0002378152B08D0002005B030BD1000FCF7BF
:10E9E00003FE2378152BF6D1174C113B01A9280003
:10E9F0000293039401F0FEFD00280AD12368DB078F
:10EA00000BD4280001F056FE0028E4D0FCF7ECFD02
:10EA1000E1E70E4B9842F9D1DDE70D4B0D4A18881E
:10EA20000C21FFF7BDFF082302009A43E9D0022220
:10EA3000094BC3189343E4D01128E2D0074B984206
:10EA4000DFD0FCF7D1FDDCE7642600204080000029
:10EA5000E4200020FFFF0000FECFFFFF0134000094
:10EA600010B5124B1888124B984217D01321FFF79C
:10EA700091FF002816D10020FFF73AFC00280AD1A8
:10EA800001F056F9002801D0FCF7AEFDFA20400055
:10EA9000FDF718FA10BDFCF7A7FDF1E7FFF778FFC7
:10EAA0000028E8D0FCF7A0FDE5E7C046E420002000
:10EAB000FFFF000010B50378002B00D010BD054B00
:10EAC0003B211888FFF766FF0028F7D0FCF78CFD84
:10EAD000F4E7C046E420002010B5040001F0FCFE7D
:10EAE000200001F02DF92000FFF7A8FE2388102B4D
:10EAF0000DD0112B03D101220A4B52421A80200063
:10EB000000F066FF2100084802F08EFE10BD0720CD
:10EB1000FFF7EEFB002801D0FCF766FDA288014B51
:10EB20001A80ECE7E42000206C26002010B50728AE
:10EB30001ED00A280ED0042800D010BD114B13217E
:10EB40001888FFF727FF082302009A43F5D0FCF747
:10EB50004BFDF2E70020FFF7CBFB00280ED1FFF7BB
:10EB600061FE002807D1FFF71DFF0028E5D0EEE782
:10EB700000F0CEFFE7E7FCF737FDF4E7FCF734FDE4
:10EB8000EDE7C046E420002010B5002807D0032898
:10EB900004D10138FFF7ACFB00280DD110BD0020D7
:10EBA000FFF7A6FB00280AD1FFF73CFE002809D199
:10EBB000FFF7F8FE0028F1D0FCF716FDEEE7FCF7B2
:10EBC00013FDF1E7FCF710FDF2E7C046F0B50023B6
:10EBD0009BB08B4A05210020FDF704F8002801D0E6
:10EBE000FCF702FD874A88490320FFF749FD00280A
:10EBF00001D0FCF7F9FC0CAC21000020FFF77CFEF3
:10EC0000002801D0FCF7F0FC267803AD023E7342E9
:10EC10005E4104227D49280002F0AFFF0023482214
:10EC20007B492800F6B202F0F9FA002801D0FCF77F
:10EC3000DBFC22000121002002F05AFB002801D059
:10EC4000FCF7D2FC0122237B72481343237302F0AA
:10EC500067FB002801D0FCF7C7FC200002F06AFB2C
:10EC6000002801D0FCF7C0FC6B4802F015FB00281F
:10EC700001D0FCF7B9FC694802F018FB002801D06C
:10EC8000FCF7B2FC2E70FEF753FE002801D0FCF713
:10EC9000ABFC280001F05CFB002801D0FCF7A4FCD1
:10ECA0003520052200216844FCF7C6FA0122637969
:10ECB0005B4E134381221340302213437F221340C3
:10ECC00063710723A3710933E371564B21000C9341
:10ECD00001233000237101F0DBFB002801D0FCF799
:10ECE00083FC0F2301212A784F4F9A430A43134094
:10ECF0001022380013432B7002F048FF390082B213
:10ED00002800FFF74BFE002801D0FCF76DFC08221D
:10ED100000212000FCF790FA444B20000C93C823FC
:10ED20005B040D93FFF738FE002801D0FCF75CFC74
:10ED3000382200212000FCF77FFA022306222370EC
:10ED4000013BA37023823A4BE27000211E3228005F
:10ED50006361FCF771FA01232B7396235B002B612F
:10ED6000783B6B6100232A0000930021314B200087
:10ED700000F068FD002801D0FCF736FC00210C22D1
:10ED80002000FCF759FA2C4B2100636000232B482C
:10ED9000A3600133238002F0D3FB002801D0FCF7ED
:10EDA00023FC274802F0A8FB307802F0ABFB1C22C2
:10EDB00000212000FCF740FAA02292026260F022BB
:10EDC00000231203A26003220C93E38123741D4BE2
:10EDD000200063611C4B2273A36100F06DFF0028CB
:10EDE00001D0FCF701FC032000F0CEFD002803D188
:10EDF000FFF7DAFD0028FBD0FCF7F6FBF8E7C0468A
:10EE0000542400202DEB0100CD0C0000E41C020076
:10EE10001C260020E81F0020D9EA0100B5E9010006
:10EE200068260020C5E90100E81C02005000A0008F
:10EE3000E020002089EB0100A51302006C260020D1
:10EE400061EA0100B5EA0100ADE9010071DF704738
:10EE500072DF704779DF70477DDF704765DF70478D
:10EE6000F0B55F464D4644465646F0B487B09B46E3
:10EE700010AB914604CB07001B88029101931388C5
:10EE8000904603930388002B00D16EE000239A463E
:10EE900004AB0024DD1C03E03B880134A3422EDDDB
:10EEA0007B68A1009C460422614405A802F065FE2F
:10EEB0000022290005A8FFF7D1FF061E2BD12B78D1
:10EEC0004B45E9D15346002B2DD043461A884B467B
:10EED0000199D3188B421DDC5A44290005A8FFF77D
:10EEE000BDFF00283BD142462B78128801349B1885
:10EEF0004246138001239A463B88A342D0DC534606
:10EF0000002B32D043461B88039A013B9B1A9BB2CD
:10EF1000FF2B26D90C26300007B03CBC9046994602
:10EF2000A246AB46F0BD43464A461B8801999A1853
:10EF300002328A42EEDC4246013369469BB21380BC
:10EF40005A46097A05A8D15443461A882900013245
:10EF500092B21A805A44FFF781FF0028C3D00600FE
:10EF6000D9E711005A465354D5E70026D3E7C046E7
:10EF7000F0B55F4656464D4644460023F0B4178828
:10EF80001380436B87B006000D001400002B00D1E6
:10EF9000E2E0022F00D8D7E01A7802230B7011218B
:10EFA000238801339BB22380E954238801339BB229
:10EFB0002380EA54238801339BB22380326B002ADA
:10EFC00000D170E019001231B94200D9BCE0112122
:10EFD000E9542388013901339BB22380E954238803
:10EFE00001339BB22380D17BE954238801339BB248
:10EFF0002380917BE954238801339BB22380517B8A
:10F00000E954238801339BB22380117BE954238880
:10F0100001339BB22380D17AE954238801339BB218
:10F020002380917AE954238801339BB22380517A5B
:10F03000E954238801339BB22380117AE954238851
:10F0400001339BB22380D179E954238801339BB2E9
:10F0500023809179E954238801339BB2238051792D
:10F06000E954238801339BB223801179E954238822
:10F0700001339BB22380D178E954238801339BB2BA
:10F0800023809178E954238801339BB223805178FF
:10F09000E954238801339BB223801278EA542388F1
:10F0A00001339BB223802E22B25C002A56D12D223E
:10F0B000B25C002A00D072E0B278002A00D09BE057
:10F0C000F278002A13D0D91CB9423DD80221E95464
:10F0D0002388013901339BB22380E954238801330B
:10F0E0009BB22380EA54238801339BB22380726849
:10F0F000002A14D0D91CB94226D802211278E9542A
:10F100002388083101339BB22380E954238852B20B
:10F1100001339BB22380EA5423880133238033894F
:10F12000002B00D092E1338A002B00D0AAE1338B70
:10F13000002B00D0C0E1336A002B00D1BFE0228851
:10F14000911DB94200D878E00C2007B03CBC904635
:10F150009946A246AB46F0BD00232FE7D91CB94221
:10F16000F2D802211C20E954238801339BB223806A
:10F17000E854238801339BB22380022A00D1BAE1EC
:10F1800000D8B3E1032A00D1B8E1042A00D077E126
:10F190000322EA54238801339BB2238087E7093393
:10F1A0000C20BB42D1D804A8FFF750FE0028CCD1D8
:10F1B000082223880921EA542388133201339BB2A1
:10F1C0002380EA5402AB9C462088153A013080B275
:10F1D00020806144281802F0D0FC238802AA06335C
:10F1E000127A9BB22380002A00D00122EA5423889D
:10F1F00001339BB223805FE704330C20BB42A4D8C9
:10F2000004A8FFF727FE00289FD103222388EA5491
:10F210002388163201339BB22380EA54238802AA42
:10F2200001339BB212892380EB181A70120A5A70AC
:10F23000238802339BB2238042E719888A46052936
:10F2400000D81DE1B248504480B28046B14884469F
:10F25000804500D814E158888146052800D80FE180
:10F26000AB4869468046C8444046C881C889604565
:10F2700000D805E1A848824504D0814502D0CA459E
:10F2800000D9FDE00521A95422880D31013292B246
:10F290002280A9542288013292B222801988AA18A9
:10F2A0001170090A51702288023292B22280598864
:10F2B000AA181170090A5170238802332380736AD7
:10F2C0009846002B30D0998820888A1C831C9B1874
:10F2D000BB4200D938E7FE2A00D935E7FF220331C7
:10F2E0002954238801339BB22380EA544246238861
:10F2F00001339BB223801288EB181A70120A5A70DD
:10F3000043462088023080B220809A88002A0BD0A1
:10F310009968002900D1B3E0281802F02EFC42467B
:10F32000238892889B1823802C23F35C002B3BD1ED
:10F3300033780020002B00D107E732880720012A0C
:10F3400000D102E72288901CB84200D9FCE6012BCC
:10F3500005D1737802339B189F4200D2F4E6023F36
:10F36000BA1A04AF93B22818390098463B80FFF7C9
:10F3700073FD002800D0E8E63378022B00D1BFE00F
:10F38000012B5ED043460821FE2B00D9DCE6228803
:10F390005E1CAE542288013292B22280A954228887
:10F3A00001329B182380D0E6B36A9846002B67D0C1
:10F3B0009B880233FE2B00D9C6E600229146163206
:10F3C00092461632208893460CE04B46B26A5B00A8
:10F3D00090464B449B00984443469B880233FE2B47
:10F3E00000D9B1E6524601332B54238801339BB236
:10F3F0002380EA544246238801339BB2238012883B
:10F40000EB181A70120A5A7043462088023080B2F4
:10F4100020809A88002A0BD09968002930D02818BB
:10F4200002F0ABFB434620889B88C01880B2208046
:10F430004B460133DBB299465B46F35C4B45C4D87F
:10F4400076E7737898459ED243469CE70823984612
:10F45000B044019700942B00022202214046FFF79E
:10F46000FFFC002800D070E6019700942B001022CA
:10F4700006214046FFF7F4FC002800D153E664E67D
:10F48000072062E610239846B044019700942B00B1
:10F49000022203214046FFF7E3FC002800D054E697
:10F4A000019700942B00102207214046FFF7D8FC5B
:10F4B000002800D13BE648E618239846B04401975F
:10F4C00000942B00022214214046FFF7C9FC0028BB
:10F4D00000D03AE6019700942B00102215214046F7
:10F4E000FFF7BEFC002800D125E62EE6012AC7D191
:10F4F0000022EA544EE60122EA544BE6E95449E67A
:10F500003B880921984500D33EE743463BE7C04688
:10F510007FF3FFFF7DF30000FFFF000030B593B0E5
:10F520001F236A460C009380D380002822D0C37822
:10F530005B071CD501AA02A9FFF71AFD02AD00283E
:10F5400016D1002C19D0E378002B10D16B460AA9F4
:10F550009A1D2000FFF70CFD002809D16B469B790E
:10F560000AAA694628000979FFF772FC00E0072023
:10F5700013B030BD90800025E3E76B460022DC80AD
:10F580000023EEE773DF704774DF704770B5A24E5B
:10F59000072286B000213000FBF74EFE9F4CA04BA7
:10F5A00022681A4272D09F4D2B78012B05D0A27889
:10F5B000002A00D10FE1022B0FD19B4A1268002ACA
:10F5C00000D11DE10121994B0820197090472B783B
:10F5D000012B64D0022B00D17EE0227B002A02D1D5
:10F5E000032B00D198E0227E002A02D1042B00D107
:10F5F00009E18D4A1268002A03D0033B012B00D891
:10F6000095E000228A4B1A70182200216846FBF709
:10F6100013FE00236A46137013722A780193039332
:10F62000022A00D1A9E000D890E0032A00D1B1E07D
:10F63000042A23D16B46A28B1A82228C5A827D4BDC
:10F640001A79002A00D1CCE02278002A00D1CCE03F
:10F65000794A1278002A00D0C7E069460393042350
:10F66000023276480A720021C370FFF757FF002864
:10F6700000D080E00622724B1A702A78002A6DD1E1
:10F68000694B1B68002B72D1002074E0A378654D94
:10F69000002B9CD02B78022B8FD0012B9DD163782F
:10F6A000002B17D07378002B00D0B1E0B378002B7B
:10F6B00000D0ADE0F378002B00D0A9E03379002B27
:10F6C00000D0A5E07379002B00D0A1E0B379002B26
:10F6D00000D09DE002232B70A378002B17D0737805
:10F6E000002B00D096E0B378002B00D092E0F378A6
:10F6F000002B00D08EE03379002B00D08AE07379A4
:10F70000002B00D086E0B379002B00D082E00323E9
:10F710002B70237B002B62D104232B70237E002BC4
:10F7200000D170E0404B1A68002A00D169E72378C5
:10F73000002B00D165E7404B1B78002B00D060E721
:10F7400001213B4B0720197090475DE7012A95D1B5
:10F75000694604933A4B01960A701A706846FFF79F
:10F7600011FF002807D1304B1B68002B8CD0344A86
:10F7700010789847002006B070BD012369460B70D1
:10F780006B46218901965982694663680B822C4B2E
:10F790001A70E3E76B46A28A5A82228A1A82254BA4
:10F7A0001A79002A25D02278002A25D0224A1278F8
:10F7B000002A21D169460393042302321F480A72AA
:10F7C0000021C370FFF7AAFE0028D4D105221C4BEC
:10F7D0001A702A7852E7022B00D0FEE697E703233F
:10F7E00007E71A7B002A00D02EE70422144B1A7078
:10F7F000B4E71A7B002AD6D10322114B1A70ADE769
:10F800000A490A70E4E600230D4A2B701370F8E6EB
:10F810000123EEE60223ECE638270020A026002094
:10F8200000FFFF009D260020042700203427002031
:10F83000842700207427002085270020C42600206C
:10F840009C260020F8B504000E000E20002C00D1EC
:10F850007BE0002A79D000203C4908703C490B60CD
:10F8600006993C4B19603C490B0023CA23C323CAA9
:10F8700023C323CA23C3072200213848FBF7DCFC3B
:10F88000374B384A384D1A60384A00219A602800B0
:10F890003822FBF7D1FC237822002B70A37810329A
:10F8A000AB70E378EB7063786B702B00103303CA96
:10F8B00003C32B00103A083303CA03C32B000832DA
:10F8C000183303CA03C3636A002B11D0284B294F96
:10F8D0006B62616A9F600A881A8088889880002815
:10F8E00006D000238A68D25CFA5401338342F9D1EE
:10F8F000A36A002B14D0204B204FAB62A06A9F60FC
:10F900008188998002881A800023002905D08268A6
:10F91000D25CFA5401338B42F9D12C23E25CEA54D5
:10F92000236A002B06D0164B2B62226A518859801D
:10F9300012881A806368002B03D0124B6B606368D7
:10F940006B6031002800FFF7E9FDF8BD9D2600201F
:10F950000427002000270020A026002038270020B0
:10F960007427002088270020C4260020A827002014
:10F970002827002008270020402700204C270020AF
:10F980006C270020702700200F4B00B51870002353
:10F9900083B001A80193FEF747FA08280DD000288C
:10F9A00005D1019B002B02D1FFF7F0FD03E00122FE
:10F9B0000020064B1A7003B000BD01A8FCF776FAD0
:10F9C0000028EED0F0E7C0469D260020FC2600204F
:10F9D00000B5038883B0112B21D01B2B0AD0102B2C
:10F9E00001D003B000BD837D012BFAD18288294B61
:10F9F0001A80F6E7027A002AF3D127490B78022B06
:10FA000045D040D9032B2AD0042BEAD1234B1A70BE
:10FA1000234B1B68002BE4D000209847E1E700232C
:10FA2000204A13701B4A818812889142D9D1012142
:10FA3000194A01A811700193FEF7F6F9082818D0A9
:10FA400000281CD1019B002B19D1FFF79FFD002836
:10FA5000C7D0154B1B68002BC3D09847C1E70F4890
:10FA60000370042301A80B700192FEF7DDF908284A
:10FA7000E6D101A8FCF71AFA0028E3D0E5E7012255
:10FA80000A4B1A70ADE7012BABD10223EAE703233F
:10FA9000E8E7C046E62000209D2600209C260020A6
:10FAA000042700208527002000270020FC260020B6
:10FAB00010B5023882B0012803D8134C2378002BEC
:10FAC00001D102B010BD002301A823700193FEF7FD
:10FAD000ABF9082811D000280CD1019B002B09D1CB
:10FAE000FFF754FD0028ECD0084B1B68002BE8D032
:10FAF0009847E6E701232370E3E701A8FCF7D6F96E
:10FB00000028EAD0ECE7C046FC26002000270020B1
:10FB100030B51F4B83B01B78002B2AD01D4D2B789E
:10FB2000002B26D11C4B1B78002B03D0FFF72CFD9C
:10FB3000041E1FD1012319482B7000210533C37007
:10FB4000FFF7ECFC041E15D1019001A8FEF76CF93B
:10FB5000082816D0002810D1019B002B0DD1FFF7EB
:10FB600015FD002805D00E4B1B68002B01D09847CF
:10FB700000E00024200003B030BD0122094B1A70C0
:10FB8000F8E701A8FCF792F90028E5D0E7E7C046BE
:10FB9000A0260020852700209D260020C4260020C6
:10FBA00000270020FC26002075DF704776DF7047B5
:10FBB0007ADF70477BDF704710B5184B82B018882A
:10FBC000174B984214D0174A174C13780133DBB205
:10FBD0001370217B99420DD200231370237C002BDC
:10FBE00012D16369002B03D0002201A8027098474C
:10FBF00002B010BD0D49FFF7D7FF0028F8D0A36968
:10FC0000002BF5D09847F3E73B21FFF7CFFF002803
:10FC1000E7D0A369002BE4D09847E2E7CA27002089
:10FC2000FFFF000018280020CC270020102800200B
:10FC300030B51B4B1B4A5B88118883B099420FD8A3
:10FC400052889A420CD3184B5B69002B03D00122D7
:10FC500001A802709847154C0023237003B030BDF3
:10FC6000124C2378002B08D00F4B5B69002BF3D08C
:10FC7000002201A802709847EEE70D4B0A4D1B7851
:10FC8000002B0BD0A96800220A48FCF737F800289F
:10FC9000E2D0AB69002BDFD09847DDE76968F2E777
:10FCA0000828002010280020CC270020C82700208A
:10FCB00018280020E8270020164902000B0070B524
:10FCC00032CA32C332CA32C312681A600022124BDF
:10FCD00001681A70002916D0104C0832200001F07B
:10FCE0004CFF2000FFF764FF00280BD101220C4BD2
:10FCF00052421A8000220B4B00211A700A480B4A0C
:10FD0000FBF7E2FF70BD0548FFF754FF0028EDD078
:10FD1000F8E7C046CC270020C82700201028002084
:10FD2000CA27002018280020F81C0200B9FB010097
:10FD300010B50248FCF758F810BDC046E82700206F
:10FD400010B50388112B31D01FD9122B16D0502B90
:10FD50001AD11F4CC288E3899A4215D1038A022B1B
:10FD600012D1837CDB070DD41A48FCF73DF800283C
:10FD70000AD0A369002B07D0984705E0164B08303E
:10FD800006C806C3FFF754FF10BD102BFCD18288B4
:10FD9000124B18301A80104B06C806C30022104BB5
:10FDA0001A700B4BDB89002BEED1EBE701220B4BDA
:10FDB00052421A8000220A4B06481A70FCF714F8C7
:10FDC0000028E1D0024B9B69002BDDD09847DBE790
:10FDD000CC270020E827002008280020CA27002080
:10FDE000182800207FDF704786DF7047A7DF704745
:10FDF000A9DF7047AADF70470020704700207047D6
:10FE000000207047F0B5474680B441782F4B0A0177
:10FE1000521A92009C469B185C680600002C0DD07C
:10FE20004B002B4D581880002818807A47B2002FBD
:10FE30001DDB002200249046002704E00023002759
:10FE4000234D98464B005B189B00EB1818894246DF
:10FE500023003900FFF7CCFF0B2812D0002804D173
:10FE6000012C19D004BC9046F0BD1A48F8E74006B2
:10FE7000DFD4A0B217008046604608376744845834
:10FE8000E1E77278390053009B189B00EB18188942
:10FE900042460123FFF7ACFF72780C2153009B18F8
:10FEA0009B00ED1828890C4AFFF7A0FF0028D9D045
:10FEB00002220A4BC318934305D0082803D0112807
:10FEC00001D00020CEE70348CCE7C0466C280020D4
:10FED0006028002041800000FFFF0000FECFFFFFF0
:10FEE000F0B58FB032236A4653804A782D4D5300C7
:10FEF0009B186A469B00EB1806000C00188902321A
:10FF0000032301A9FFF776FF002802D000200FB0DD
:10FF1000F0BD6B465A886378234F1801C01A8000E1
:10FF20000830381801A901F019FE002827D061789F
:10FF30000B015A1A9200BA185268002A30D11B4D90
:10FF400003225B1A9B00FA506B4661785A880B01BA
:10FF50005B1A9B00FB185A60637801A91801C01A4C
:10FF600080000830381801F008FE63783C2219013F
:10FF7000C91A8900791838233000A847C6E7627883
:10FF800053009B189B00ED18AB7A9B07BED4100161
:10FF9000801A800038183C220021FBF74DF9B5E7A4
:10FFA000034DCDE7602800206C280020C9DB01004C
:10FFB0004DDC010070B506004A780C4C13019B1A09
:10FFC0009B000D00E0183C2238233100FDF780FE35
:10FFD000002807D16A7813019B1A9B00E418636814
:10FFE000013300D070BD6060FCE7C0466C28002083
:10FFF000F0B557464E464546E0B44C4E1F003368B8
:020000022000DC
:1000000092B0804689469246002B45D01A9B8C2B95
:1000100042D8474B6A460193002313741A9B0997F1
:1000200008930024434D02E00134072C11D0A1B203
:1000300002AA2800FDF79CFD0028F5D1082202A99C
:10004000404601F08BFD0028EED1E4B201ADAC706A
:1000500003E001ADAC78FF2C1ED04B46032B2CD017
:10006000354BFB1AC32B1DD9344BFB1A1B2B2FD836
:1000700000236B700AAB0993202308934A46022A97
:100080004FD0022213436A46137407AB05935246BE
:10009000336804A92800984712B01CBC90469946C2
:1000A000A246F0BD53462649002B0BD00B68012217
:1000B000A24093430B602023E0E71A9B8C2B2ED0A9
:1000C0004323E0E70122A2400B681342E4D0EEE7AD
:1000D0001C483B1A3B2B0FD91B4B9F42F0D01B4BAC
:1000E000A200D3589F42D7D1194BDA7A4023A242BB
:1000F000C4D100226A70C1E730236A46137400231A
:100100006B700133EB70124B9A7A30239207B5D49F
:100110003C220021FBF790F86B461B7CAEE72323C3
:10012000B1E7012213436A461374AEE73828002072
:1001300000FFFFFF90290020CC2800204428002049
:10014000C82800206C280020041E02001C28002063
:100150006028002000207047002070470020704772
:100160000020704770B506004A780C4C13019B1AAA
:100170009B000D00E0183C2238233100FDF7A8FD5C
:10018000002807D16A7813019B1A9B00E418636862
:10019000013300D070BD6060FCE7C0466C280020D1
:1001A000F0B5474680B441782F4B0A01521A9200AD
:1001B0009C469B185C680600002C0DD04B002B4D14
:1001C000581880002818807A47B2002F20DB0022C0
:1001D00000249046002704E000230027234D984682
:1001E0004B005B189B00EB1818894246230039002E
:1001F000FFF7FEFD0B2815D0002803D0012C1CD0E2
:100200001B4802E0012C18D0002004BC9046F0BD31
:100210004006DCD4A0B21700804660460837674429
:100220008458DEE77278390053009B189B00EB1866
:10023000188942460123FFF7DBFD72780C21530039
:100240009B189B00ED1828890A4AFFF7CFFD00286C
:10025000DAD00222084BC3189343D1D00828CFD05C
:100260001128D1D10248D0E76C2800206028002056
:1002700041800000FFFF0000FECFFFFFF0B58FB010
:1002800032236A4653804A782D4D53009B186A46A4
:100290009B00EB1806000C0018890232032301A909
:1002A000FFF7A8FD002802D000200FB0F0BD6B467C
:1002B0005A886378234F1801C01A80000830381814
:1002C00001A901F04BFC002827D061780B015A1AD4
:1002D0009200BA185268002A30D11B4D03225B1AD3
:1002E0009B00FA506B4661785A880B015B1A9B00A1
:1002F000FB185A60637801A91801C01A8000083001
:10030000381801F03AFC63783C221901C91A8900B7
:10031000791838233000A847C6E7627853009B1845
:100320009B00ED18AB7A9B07BED41001801A8000A9
:1003300038183C220021FAF77FFFB5E7034DCDE7DF
:10034000602800206C280020C9DB01004DDC010082
:10035000F0B55F4656464D464446F0B487B001902E
:1003600000286DD000223E4B01261A605A729A7204
:1003700001233C4876428372073200210681C6720F
:10038000FAF75AFF3C2200213748FAF755FF374B5E
:1003900000259A461C00364BFF279846354B9B4656
:1003A000012399462000062200211130FAF744FF6C
:1003B000102200212000FAF73FFF4B464246AB4097
:1003C000126859469A431300424613600022AB005C
:1003D000CA50294B27745E550135A77626831C34F5
:1003E000072DDFD1254B264D0393264B290002A86C
:1003F0000293FDF747FB00281BD14B46224E33707A
:10040000019B1B78002B1DD100245746A1B204AAE2
:100410002800FDF7ADFB002300281CD11C2204A9F5
:100420003800FDF755FC002817D101341C37072C84
:10043000ECD107B03CBC90469946A246AB46F0BD15
:100440001248F6E702AB9988DB882800594389B245
:10045000FDF798FCEDE73370EBE700233370E8E736
:1004600038280020602800206C280020CC2800209C
:10047000C82800201C280020A82800208C00070085
:1004800090290020F1FF0100C72800200E80000005
:10049000F8B5194B05001B780C00002B01D117484B
:1004A000F8BD00280AD0002908D00B68002B05D021
:1004B000134E3768002F03D01248F1E71248EFE7D8
:1004C0003000053108C0052201F057FB23790220D6
:1004D000B37201230421327A9A430243D2B28A438F
:1004E00032720122F3791343DBB20343DBB28B4355
:1004F000F37100202F70D3E7C72800200880000088
:1005000038280020048000000E80000070B52E4BBB
:1005100084B01B7804000D00002B02D12B4804B0DE
:1005200070BD002810D000290ED08B68002B0BD096
:100530000378002BF2D1264B1B68002BEED081787C
:10054000062903D92348EAE72348E8E7CB005B1AEA
:10055000224A9B00D3189B7EFF2BF3D04278530096
:100560009B181F4A9B00D3189B7A1B07D6D56B6834
:100570000720032BD3D989B202AA1A48FDF7F8FA4B
:100580000028CCD17823042202A901A8FDF7A0FB02
:10059000154E002803D1019B013300D0134E291DB5
:1005A0007823042202A8B0470028B8D17C23102267
:1005B000A96802A8FDF74AFB0028B0D1A378A96872
:1005C0000B4A9B009950AAE7C7280020088000002A
:1005D00038280020108000000E800000CC28002069
:1005E0006028002090290020C9DB01004DDC0100BB
:1005F0001C28002010B5264B84B01B780C00002B63
:1006000002D1244804B010BD00280DD000290BD021
:100610000378002BF5D1204B1B68002BF1D0837899
:10062000062B03D91D48EDE71D48EBE7DA00D21A87
:100630001C4992008A18927EFF2AF3D0A2689B0080
:10064000002A20D018495A50817802AA1748FDF78D
:100650008FFA0028D6D17823042202A901A8FDF739
:1006600037FB002801D01248CCE7019B0133FAD0B8
:100670007C23102202A9A068FDF72AFB0028C1D123
:10068000019B6360BEE7084A9B58A360DCE7C04655
:10069000C7280020088000003828002010800000B3
:1006A0000E800000CC2800201C280020902900206B
:1006B0004080000010B51F4B84B01B780400002B55
:1006C00002D11D4804B010BD00280BD00378002BC8
:1006D000F7D11A4B1B68002BF3D08178062903D978
:1006E0001748EFE71748EDE7CB005B1A164A9B0067
:1006F000D3189B7EFF2BF3D089B202AA1348FDF7D3
:1007000037FA0028DED17823042202A901A8FDF7D8
:10071000DFFA019B0133D5D0782304220C4902A8CB
:10072000FDF794FA0028CDD1A3780A4A9B0098508F
:10073000C8E7C046C72800200880000038280020ED
:10074000108000000E800000CC280020902900209E
:10075000041E02001C2800200A4B1B78002B01D12C
:100760000948704700290BD0002809D00378002BD6
:10077000F6D1064A1268002AF2D00B700020F0E78A
:100780000348EEE7C7280020088000003828002032
:100790000E80000010B51A4B0C001B78002B01D105
:1007A000184810BD002815D0002913D00378002B5D
:1007B000F6D1154B1B68002BF2D08378FF2B12D09B
:1007C000D900C91A114B890059188B7E9B0703D594
:1007D0000F48E6E70F48E4E710310722200001F058
:1007E000CCF90020DDE74378FF2BF1D05900C91880
:1007F000094B890059188B7A9B07EED40448D0E73F
:10080000C72800200880000038280020CC280020BD
:10081000058000000E80000060280020F0B5264B07
:100820008BB01B7804000D00002B02D123480BB0C5
:10083000F0BD00280DD000290BD00378002BF5D196
:100840001F4A1268002AF1D08278062A03D91D486F
:10085000EDE71D48EBE7D1001C4E8A1A9200B21852
:10086000927EFF2AF3D0EB608178194FCA00521AAA
:100870009200B2186B61AB6003AB2A616F602B60B2
:10088000817801AA1348FDF773F90028CFD11C2302
:100890001C2201A903A8FDF71BFA0028C7D1E860B4
:1008A000A2786861D3009B1A9B00F61803AB2E61F7
:1008B0006F60A8602B60BAE7C7280020088000009E
:1008C00038280020108000000E800000CC28002076
:1008D000B028002090290020F0B544465F465646D7
:1008E0004D46FF23F0B491B00393A94B04001B784D
:1008F000002B3FD0A74F3B689A46002B3AD005AD5E
:10090000031D6B602C232B81A34B04930388102BB6
:1009100000D1E5E0FF218288A04E9446B27A894654
:10092000910705D59E498C452BD03189614528D04A
:10093000113B9BB2412B1DD89A499B00CB589F4637
:1009400013232B700023994604AB98464A4629008E
:100950004046D0472B78122B0CD1B37A012B09D00B
:100960000123B372023B3381F3720722002130006E
:10097000FAF762FC11B03CBC90469946A246AB46E1
:10098000F0BDF17A894604A988464846887000215E
:1009900040464170CCE701217B7A14208B437B7267
:1009A0001300884603318B43B3722870207A0028E5
:1009B00000D107E1530600D423E20023994604AB9B
:1009C0009846C3E7237A112B02D1130700D52AE2F8
:1009D00080235B421A4395332B7004AB9846B27266
:1009E000BB7A714A9B009B58404698473B689A46A1
:1009F00000239946AAE7BB7A6B4A9B009B5804A840
:100A00009847B7E70223110008249943B1721440B4
:100A100000D150E104AA4BB29046002B00DA1CE250
:100A20001023B37202332B70002399468EE71323F1
:100A30002B7004231343B372F37AFF2B00D097E09B
:100A40005A4A9246927EFF2A00D1CBE23622514684
:100A50008A5CFF2A00D1A1E252228A5CFF2A00D1DF
:100A6000C6E26E228A5CFF2A00D1BFE28A228A5C3B
:100A7000FF2A00D1B8E2A6228A5CFF2A00D1BBE29D
:100A8000C2228A5CFF2A00D1B4E2494A9146002280
:100A9000D900C91A8900474B51440C920D910E920E
:100AA0000F92089309920A920B92A0883A1D08AB04
:100AB0000021FFF797F9002800D05BE73B689A46D2
:100AC00004AB984642E7F37AFF2B00D125E1374B80
